{
  "_format": "hh-sol-artifact-1",
  "contractName": "VaccineTracker",
  "sourceName": "contracts/VaccineTracker.sol",
  "abi": [
    {
      "inputs": [],
      "stateMutability": "nonpayable",
      "type": "constructor"
    },
    {
      "anonymous": false,
      "inputs": [
        {
          "indexed": false,
          "internalType": "enum VaccineTracker.Status",
          "name": "",
          "type": "uint8"
        }
      ],
      "name": "changeDefaultVaccineStatus",
      "type": "event"
    },
    {
      "anonymous": false,
      "inputs": [
        {
          "indexed": false,
          "internalType": "enum VaccineTracker.location",
          "name": "",
          "type": "uint8"
        }
      ],
      "name": "changeGeoLocation",
      "type": "event"
    },
    {
      "inputs": [],
      "name": "DefaultVaccineStatus",
      "outputs": [
        {
          "internalType": "enum VaccineTracker.Status",
          "name": "",
          "type": "uint8"
        }
      ],
      "stateMutability": "view",
      "type": "function"
    },
    {
      "inputs": [
        {
          "internalType": "string",
          "name": "_vaccineName",
          "type": "string"
        },
        {
          "internalType": "string",
          "name": "_serialNumber",
          "type": "string"
        },
        {
          "internalType": "uint256",
          "name": "_vaccineCost",
          "type": "uint256"
        }
      ],
      "name": "addVaccine",
      "outputs": [
        {
          "internalType": "uint256",
          "name": "",
          "type": "uint256"
        }
      ],
      "stateMutability": "nonpayable",
      "type": "function"
    },
    {
      "inputs": [],
      "name": "currentDefaultVaccineStatus",
      "outputs": [
        {
          "internalType": "enum VaccineTracker.Status",
          "name": "",
          "type": "uint8"
        }
      ],
      "stateMutability": "view",
      "type": "function"
    },
    {
      "inputs": [],
      "name": "currentgeoLocation",
      "outputs": [
        {
          "internalType": "enum VaccineTracker.Status",
          "name": "",
          "type": "uint8"
        },
        {
          "internalType": "enum VaccineTracker.location",
          "name": "",
          "type": "uint8"
        }
      ],
      "stateMutability": "view",
      "type": "function"
    },
    {
      "inputs": [],
      "name": "defaultgeolocation",
      "outputs": [
        {
          "internalType": "enum VaccineTracker.location",
          "name": "",
          "type": "uint8"
        }
      ],
      "stateMutability": "view",
      "type": "function"
    },
    {
      "inputs": [
        {
          "internalType": "uint8",
          "name": "_status",
          "type": "uint8"
        }
      ],
      "name": "geoLocation",
      "outputs": [],
      "stateMutability": "nonpayable",
      "type": "function"
    },
    {
      "inputs": [],
      "name": "owner",
      "outputs": [
        {
          "internalType": "address",
          "name": "",
          "type": "address"
        }
      ],
      "stateMutability": "view",
      "type": "function"
    },
    {
      "inputs": [],
      "name": "participant_id",
      "outputs": [
        {
          "internalType": "uint256",
          "name": "",
          "type": "uint256"
        }
      ],
      "stateMutability": "view",
      "type": "function"
    },
    {
      "inputs": [
        {
          "internalType": "uint256",
          "name": "",
          "type": "uint256"
        }
      ],
      "name": "participants",
      "outputs": [
        {
          "internalType": "string",
          "name": "userName",
          "type": "string"
        },
        {
          "internalType": "address",
          "name": "participantAddress",
          "type": "address"
        },
        {
          "internalType": "string",
          "name": "participantType",
          "type": "string"
        }
      ],
      "stateMutability": "view",
      "type": "function"
    },
    {
      "inputs": [
        {
          "internalType": "string",
          "name": "_username",
          "type": "string"
        },
        {
          "internalType": "address",
          "name": "_participantAddress",
          "type": "address"
        },
        {
          "internalType": "string",
          "name": "_participantType",
          "type": "string"
        }
      ],
      "name": "registerParticipant",
      "outputs": [
        {
          "internalType": "uint256",
          "name": "",
          "type": "uint256"
        }
      ],
      "stateMutability": "nonpayable",
      "type": "function"
    },
    {
      "inputs": [
        {
          "internalType": "uint256",
          "name": "",
          "type": "uint256"
        }
      ],
      "name": "transit",
      "outputs": [
        {
          "internalType": "string",
          "name": "manufacturers",
          "type": "string"
        },
        {
          "internalType": "string",
          "name": "logistics",
          "type": "string"
        },
        {
          "internalType": "string",
          "name": "suppliers",
          "type": "string"
        },
        {
          "internalType": "string",
          "name": "distributer",
          "type": "string"
        },
        {
          "internalType": "string",
          "name": "hospitals",
          "type": "string"
        }
      ],
      "stateMutability": "view",
      "type": "function"
    },
    {
      "inputs": [
        {
          "internalType": "uint256",
          "name": "_participantId",
          "type": "uint256"
        }
      ],
      "name": "userName",
      "outputs": [
        {
          "internalType": "string",
          "name": "",
          "type": "string"
        }
      ],
      "stateMutability": "view",
      "type": "function"
    },
    {
      "inputs": [],
      "name": "vaccine_id",
      "outputs": [
        {
          "internalType": "uint256",
          "name": "",
          "type": "uint256"
        }
      ],
      "stateMutability": "view",
      "type": "function"
    },
    {
      "inputs": [
        {
          "internalType": "uint256",
          "name": "",
          "type": "uint256"
        }
      ],
      "name": "vaccines",
      "outputs": [
        {
          "internalType": "string",
          "name": "vaccineName",
          "type": "string"
        },
        {
          "internalType": "string",
          "name": "serialNumber",
          "type": "string"
        },
        {
          "internalType": "uint256",
          "name": "cost",
          "type": "uint256"
        },
        {
          "internalType": "uint256",
          "name": "mfgTimeStamp",
          "type": "uint256"
        },
        {
          "internalType": "enum VaccineTracker.Status",
          "name": "DefaultVaccineStatus",
          "type": "uint8"
        }
      ],
      "stateMutability": "view",
      "type": "function"
    },
    {
      "inputs": [
        {
          "internalType": "uint256",
          "name": "_participantId",
          "type": "uint256"
        }
      ],
      "name": "viewParticipant",
      "outputs": [
        {
          "components": [
            {
              "internalType": "string",
              "name": "userName",
              "type": "string"
            },
            {
              "internalType": "address",
              "name": "participantAddress",
              "type": "address"
            },
            {
              "internalType": "string",
              "name": "participantType",
              "type": "string"
            }
          ],
          "internalType": "struct VaccineTracker.partitcipant",
          "name": "",
          "type": "tuple"
        }
      ],
      "stateMutability": "view",
      "type": "function"
    },
    {
      "inputs": [
        {
          "internalType": "uint256",
          "name": "_vaccine_id",
          "type": "uint256"
        }
      ],
      "name": "viewVaccine",
      "outputs": [
        {
          "components": [
            {
              "internalType": "string",
              "name": "vaccineName",
              "type": "string"
            },
            {
              "internalType": "string",
              "name": "serialNumber",
              "type": "string"
            },
            {
              "internalType": "uint256",
              "name": "cost",
              "type": "uint256"
            },
            {
              "internalType": "uint256",
              "name": "mfgTimeStamp",
              "type": "uint256"
            },
            {
              "internalType": "enum VaccineTracker.Status",
              "name": "DefaultVaccineStatus",
              "type": "uint8"
            }
          ],
          "internalType": "struct VaccineTracker.vaccine",
          "name": "",
          "type": "tuple"
        }
      ],
      "stateMutability": "view",
      "type": "function"
    }
  ],
  "bytecode": "0x60806040526000805560006001556000600660006101000a81548160ff02191690836005811115620000365762000035620000be565b5b02179055506000600660016101000a81548160ff02191690836004811115620000645762000063620000be565b5b02179055503480156200007657600080fd5b5033600260006101000a81548173ffffffffffffffffffffffffffffffffffffffff021916908373ffffffffffffffffffffffffffffffffffffffff160217905550620000ed565b7f4e487b7100000000000000000000000000000000000000000000000000000000600052602160045260246000fd5b611dfa80620000fd6000396000f3fe608060405234801561001057600080fd5b50600436106101005760003560e01c80635c7e633011610097578063c724c0ee11610066578063c724c0ee14610305578063d9bfe07814610323578063f11c0e9a14610341578063fc2da9101461036057610100565b80635c7e63301461027b5780636ee0ab49146102995780638da5cb5b146102b7578063b0cf057f146102d557610100565b80631797a856116100d35780631797a856146101b1578063300e88bd146101e157806335c1d349146102155780634cfee77d1461024757610100565b8063029f1d0e14610105578063047a9b471461013557806307a14228146101515780630b454ae214610181575b600080fd5b61011f600480360381019061011a91906114d7565b61037e565b60405161012c919061159d565b60405180910390f35b61014f600480360381019061014a91906115f8565b610426565b005b61016b600480360381019061016691906117b8565b610860565b6040516101789190611852565b60405180910390f35b61019b600480360381019061019691906114d7565b610932565b6040516101a8919061191d565b60405180910390f35b6101cb60048036038101906101c691906114d7565b610ad9565b6040516101d89190611a42565b60405180910390f35b6101fb60048036038101906101f691906114d7565b610c79565b60405161020c959493929190611a73565b60405180910390f35b61022f600480360381019061022a91906114d7565b610dcc565b60405161023e93929190611ae3565b60405180910390f35b610261600480360381019061025c91906114d7565b610f26565b604051610272959493929190611b28565b60405180910390f35b610283611204565b6040516102909190611852565b60405180910390f35b6102a161120a565b6040516102ae9190611be6565b60405180910390f35b6102bf61121d565b6040516102cc9190611c01565b60405180910390f35b6102ef60048036038101906102ea9190611c1c565b611243565b6040516102fc9190611852565b60405180910390f35b61030d611317565b60405161031a9190611ca7565b60405180910390f35b61032b61132e565b6040516103389190611ca7565b60405180910390f35b610349611341565b604051610357929190611cc2565b60405180910390f35b61036861136c565b6040516103759190611852565b60405180910390f35b60606004600083815260200190815260200160002060000180546103a190611d1a565b80601f01602080910402602001604051908101604052809291908181526020018280546103cd90611d1a565b801561041a5780601f106103ef5761010080835404028352916020019161041a565b820191906000526020600020905b8154815290600101906020018083116103fd57829003601f168201915b50505050509050919050565b60008160ff16141561048d576000600660006101000a81548160ff021916908360058111156104585761045761194e565b5b02179055506000600660016101000a81548160ff021916908360048111156104835761048261194e565b5b02179055506107d1565b60018160ff16141561053457600060058111156104ad576104ac61194e565b5b600660009054906101000a900460ff1660058111156104cf576104ce61194e565b5b146104d957600080fd5b6001600660006101000a81548160ff021916908360058111156104ff576104fe61194e565b5b02179055506001600660016101000a81548160ff0219169083600481111561052a5761052961194e565b5b02179055506107d0565b60028160ff1614156105db57600160058111156105545761055361194e565b5b600660009054906101000a900460ff1660058111156105765761057561194e565b5b1461058057600080fd5b6002600660006101000a81548160ff021916908360058111156105a6576105a561194e565b5b02179055506002600660016101000a81548160ff021916908360048111156105d1576105d061194e565b5b02179055506107cf565b60038160ff16141561068257600260058111156105fb576105fa61194e565b5b600660009054906101000a900460ff16600581111561061d5761061c61194e565b5b1461062757600080fd5b6003600660006101000a81548160ff0219169083600581111561064d5761064c61194e565b5b02179055506003600660016101000a81548160ff021916908360048111156106785761067761194e565b5b02179055506107ce565b60048160ff16141561072957600360058111156106a2576106a161194e565b5b600660009054906101000a900460ff1660058111156106c4576106c361194e565b5b146106ce57600080fd5b6004600660006101000a81548160ff021916908360058111156106f4576106f361194e565b5b02179055506004600660016101000a81548160ff0219169083600481111561071f5761071e61194e565b5b02179055506107cd565b60058160ff1614156107cc57600460058111156107495761074861194e565b5b600660009054906101000a900460ff16600581111561076b5761076a61194e565b5b1461077557600080fd5b6005600660006101000a81548160ff0219169083600581111561079b5761079a61194e565b5b02179055506004600660016101000a81548160ff021916908360048111156107c6576107c561194e565b5b02179055505b5b5b5b5b5b7f8c55aa88fd42c5430dae57602861316bfdb4cbebe31d593286d3bc9987fcb86b600660009054906101000a900460ff1660405161080f9190611ca7565b60405180910390a17ff9a645f7a7adfa001f8ad4be24a63628d607e2f163db964950df03d4cb813370600660019054906101000a900460ff166040516108559190611be6565b60405180910390a150565b6000806001600081548092919061087690611d7b565b919050559050846004600083815260200190815260200160002060000190805190602001906108a6929190611372565b50836004600083815260200190815260200160002060010160006101000a81548173ffffffffffffffffffffffffffffffffffffffff021916908373ffffffffffffffffffffffffffffffffffffffff16021790555082600460008381526020019081526020016000206002019080519060200190610926929190611372565b50809150509392505050565b61093a6113f8565b6004600083815260200190815260200160002060405180606001604052908160008201805461096890611d1a565b80601f016020809104026020016040519081016040528092919081815260200182805461099490611d1a565b80156109e15780601f106109b6576101008083540402835291602001916109e1565b820191906000526020600020905b8154815290600101906020018083116109c457829003601f168201915b505050505081526020016001820160009054906101000a900473ffffffffffffffffffffffffffffffffffffffff1673ffffffffffffffffffffffffffffffffffffffff1673ffffffffffffffffffffffffffffffffffffffff168152602001600282018054610a5090611d1a565b80601f0160208091040260200160405190810160405280929190818152602001828054610a7c90611d1a565b8015610ac95780601f10610a9e57610100808354040283529160200191610ac9565b820191906000526020600020905b815481529060010190602001808311610aac57829003601f168201915b5050505050815250509050919050565b610ae161142f565b600360008381526020019081526020016000206040518060a0016040529081600082018054610b0f90611d1a565b80601f0160208091040260200160405190810160405280929190818152602001828054610b3b90611d1a565b8015610b885780601f10610b5d57610100808354040283529160200191610b88565b820191906000526020600020905b815481529060010190602001808311610b6b57829003601f168201915b50505050508152602001600182018054610ba190611d1a565b80601f0160208091040260200160405190810160405280929190818152602001828054610bcd90611d1a565b8015610c1a5780601f10610bef57610100808354040283529160200191610c1a565b820191906000526020600020905b815481529060010190602001808311610bfd57829003601f168201915b5050505050815260200160028201548152602001600382015481526020016004820160009054906101000a900460ff166005811115610c5c57610c5b61194e565b5b6005811115610c6e57610c6d61194e565b5b815250509050919050565b6003602052806000526040600020600091509050806000018054610c9c90611d1a565b80601f0160208091040260200160405190810160405280929190818152602001828054610cc890611d1a565b8015610d155780601f10610cea57610100808354040283529160200191610d15565b820191906000526020600020905b815481529060010190602001808311610cf857829003601f168201915b505050505090806001018054610d2a90611d1a565b80601f0160208091040260200160405190810160405280929190818152602001828054610d5690611d1a565b8015610da35780601f10610d7857610100808354040283529160200191610da3565b820191906000526020600020905b815481529060010190602001808311610d8657829003601f168201915b5050505050908060020154908060030154908060040160009054906101000a900460ff16905085565b6004602052806000526040600020600091509050806000018054610def90611d1a565b80601f0160208091040260200160405190810160405280929190818152602001828054610e1b90611d1a565b8015610e685780601f10610e3d57610100808354040283529160200191610e68565b820191906000526020600020905b815481529060010190602001808311610e4b57829003601f168201915b5050505050908060010160009054906101000a900473ffffffffffffffffffffffffffffffffffffffff1690806002018054610ea390611d1a565b80601f0160208091040260200160405190810160405280929190818152602001828054610ecf90611d1a565b8015610f1c5780601f10610ef157610100808354040283529160200191610f1c565b820191906000526020600020905b815481529060010190602001808311610eff57829003601f168201915b5050505050905083565b6005602052806000526040600020600091509050806000018054610f4990611d1a565b80601f0160208091040260200160405190810160405280929190818152602001828054610f7590611d1a565b8015610fc25780601f10610f9757610100808354040283529160200191610fc2565b820191906000526020600020905b815481529060010190602001808311610fa557829003601f168201915b505050505090806001018054610fd790611d1a565b80601f016020809104026020016040519081016040528092919081815260200182805461100390611d1a565b80156110505780601f1061102557610100808354040283529160200191611050565b820191906000526020600020905b81548152906001019060200180831161103357829003601f168201915b50505050509080600201805461106590611d1a565b80601f016020809104026020016040519081016040528092919081815260200182805461109190611d1a565b80156110de5780601f106110b3576101008083540402835291602001916110de565b820191906000526020600020905b8154815290600101906020018083116110c157829003601f168201915b5050505050908060030180546110f390611d1a565b80601f016020809104026020016040519081016040528092919081815260200182805461111f90611d1a565b801561116c5780601f106111415761010080835404028352916020019161116c565b820191906000526020600020905b81548152906001019060200180831161114f57829003601f168201915b50505050509080600401805461118190611d1a565b80601f01602080910402602001604051908101604052809291908181526020018280546111ad90611d1a565b80156111fa5780601f106111cf576101008083540402835291602001916111fa565b820191906000526020600020905b8154815290600101906020018083116111dd57829003601f168201915b5050505050905085565b60005481565b600660019054906101000a900460ff1681565b600260009054906101000a900473ffffffffffffffffffffffffffffffffffffffff1681565b60008060008081548092919061125890611d7b565b91905055905084600360008381526020019081526020016000206000019080519060200190611288929190611372565b50836003600083815260200190815260200160002060010190805190602001906112b3929190611372565b508260036000838152602001908152602001600020600201819055504260036000838152602001908152602001600020600301819055506003600082815260200190815260200160002060040160009054906101000a905050809150509392505050565b6000600660009054906101000a900460ff16905090565b600660009054906101000a900460ff1681565b600080600660009054906101000a900460ff16600660019054906101000a900460ff16915091509091565b60015481565b82805461137e90611d1a565b90600052602060002090601f0160209004810192826113a057600085556113e7565b82601f106113b957805160ff19168380011785556113e7565b828001600101855582156113e7579182015b828111156113e65782518255916020019190600101906113cb565b5b5090506113f49190611470565b5090565b604051806060016040528060608152602001600073ffffffffffffffffffffffffffffffffffffffff168152602001606081525090565b6040518060a00160405280606081526020016060815260200160008152602001600081526020016000600581111561146a5761146961194e565b5b81525090565b5b80821115611489576000816000905550600101611471565b5090565b6000604051905090565b600080fd5b600080fd5b6000819050919050565b6114b4816114a1565b81146114bf57600080fd5b50565b6000813590506114d1816114ab565b92915050565b6000602082840312156114ed576114ec611497565b5b60006114fb848285016114c2565b91505092915050565b600081519050919050565b600082825260208201905092915050565b60005b8381101561153e578082015181840152602081019050611523565b8381111561154d576000848401525b50505050565b6000601f19601f8301169050919050565b600061156f82611504565b611579818561150f565b9350611589818560208601611520565b61159281611553565b840191505092915050565b600060208201905081810360008301526115b78184611564565b905092915050565b600060ff82169050919050565b6115d5816115bf565b81146115e057600080fd5b50565b6000813590506115f2816115cc565b92915050565b60006020828403121561160e5761160d611497565b5b600061161c848285016115e3565b91505092915050565b600080fd5b600080fd5b7f4e487b7100000000000000000000000000000000000000000000000000000000600052604160045260246000fd5b61166782611553565b810181811067ffffffffffffffff821117156116865761168561162f565b5b80604052505050565b600061169961148d565b90506116a5828261165e565b919050565b600067ffffffffffffffff8211156116c5576116c461162f565b5b6116ce82611553565b9050602081019050919050565b82818337600083830152505050565b60006116fd6116f8846116aa565b61168f565b9050828152602081018484840111156117195761171861162a565b5b6117248482856116db565b509392505050565b600082601f83011261174157611740611625565b5b81356117518482602086016116ea565b91505092915050565b600073ffffffffffffffffffffffffffffffffffffffff82169050919050565b60006117858261175a565b9050919050565b6117958161177a565b81146117a057600080fd5b50565b6000813590506117b28161178c565b92915050565b6000806000606084860312156117d1576117d0611497565b5b600084013567ffffffffffffffff8111156117ef576117ee61149c565b5b6117fb8682870161172c565b935050602061180c868287016117a3565b925050604084013567ffffffffffffffff81111561182d5761182c61149c565b5b6118398682870161172c565b9150509250925092565b61184c816114a1565b82525050565b60006020820190506118676000830184611843565b92915050565b600082825260208201905092915050565b600061188982611504565b611893818561186d565b93506118a3818560208601611520565b6118ac81611553565b840191505092915050565b6118c08161177a565b82525050565b600060608301600083015184820360008601526118e3828261187e565b91505060208301516118f860208601826118b7565b5060408301518482036040860152611910828261187e565b9150508091505092915050565b6000602082019050818103600083015261193781846118c6565b905092915050565b611948816114a1565b82525050565b7f4e487b7100000000000000000000000000000000000000000000000000000000600052602160045260246000fd5b6006811061198e5761198d61194e565b5b50565b600081905061199f8261197d565b919050565b60006119af82611991565b9050919050565b6119bf816119a4565b82525050565b600060a08301600083015184820360008601526119e2828261187e565b915050602083015184820360208601526119fc828261187e565b9150506040830151611a11604086018261193f565b506060830151611a24606086018261193f565b506080830151611a3760808601826119b6565b508091505092915050565b60006020820190508181036000830152611a5c81846119c5565b905092915050565b611a6d816119a4565b82525050565b600060a0820190508181036000830152611a8d8188611564565b90508181036020830152611aa18187611564565b9050611ab06040830186611843565b611abd6060830185611843565b611aca6080830184611a64565b9695505050505050565b611add8161177a565b82525050565b60006060820190508181036000830152611afd8186611564565b9050611b0c6020830185611ad4565b8181036040830152611b1e8184611564565b9050949350505050565b600060a0820190508181036000830152611b428188611564565b90508181036020830152611b568187611564565b90508181036040830152611b6a8186611564565b90508181036060830152611b7e8185611564565b90508181036080830152611b928184611564565b90509695505050505050565b60058110611baf57611bae61194e565b5b50565b6000819050611bc082611b9e565b919050565b6000611bd082611bb2565b9050919050565b611be081611bc5565b82525050565b6000602082019050611bfb6000830184611bd7565b92915050565b6000602082019050611c166000830184611ad4565b92915050565b600080600060608486031215611c3557611c34611497565b5b600084013567ffffffffffffffff811115611c5357611c5261149c565b5b611c5f8682870161172c565b935050602084013567ffffffffffffffff811115611c8057611c7f61149c565b5b611c8c8682870161172c565b9250506040611c9d868287016114c2565b9150509250925092565b6000602082019050611cbc6000830184611a64565b92915050565b6000604082019050611cd76000830185611a64565b611ce46020830184611bd7565b9392505050565b7f4e487b7100000000000000000000000000000000000000000000000000000000600052602260045260246000fd5b60006002820490506001821680611d3257607f821691505b60208210811415611d4657611d45611ceb565b5b50919050565b7f4e487b7100000000000000000000000000000000000000000000000000000000600052601160045260246000fd5b6000611d86826114a1565b91507fffffffffffffffffffffffffffffffffffffffffffffffffffffffffffffffff821415611db957611db8611d4c565b5b60018201905091905056fea2646970667358221220394222ad5d3e3f859a0cea450d02c91c66f169b0250c943f5bacc8a58587fb8c64736f6c63430008090033",
  "linkReferences": {},
  "deployedLinkReferences": {}
}